:100000000C942A001895000018950000189500001F
:10001000189500001895000018950000189500002C
:10002000189500001895000018950000189500001C
:10003000189500001895000018950000189500000C
:1000400018950000189500001895000018950000FC
:10005000189500008FE58DBFC8E3E0E24E2E88E0E2
:100060008EBFD8E0F8E05F2EA89584B7082E877F72
:1000700084BF88E1992781BD91BDEEEFF7E0A0E64E
:10008000B0E088278D933197E9F783E389B980E061
:1000900080BD88E18AB90E94321266248F9A70E08E
:1000A00072BB0E9414128CE00E9480128FE711E054
:1000B0000E942312E0EBF5E20E940B120E94121242
:1000C0008FEB11E00E942312ECEBF5E20E940B1281
:1000D000E2E0F0E00E9429120E9426128FE711E070
:1000E0000E9423120E941412ECEBF5E20E940B1204
:1000F0000E941212ECECF5E20E940B12E3E0F0E039
:100100000E9429120E9414128FE711E00E9423120C
:10011000EAEDF5E20E940B12EAEEF5E20E94F5111B
:100120000E94FC110E94FC110E941212A1E6B0E094
:1001300088278C930E94F111A0E6B0E08C93A0E692
:10014000B0E08C910E94FF110E94FC1100916000B0
:100150000D3011F00C94AE000C94C800A0E6B0E095
:100160008C91A1E6B0E00E94EA118D9388278C93D0
:10017000A0E6B0E08C91A2E7B0E00E94EA118D9376
:1001800088278C93A1E6B0E00E9405120C9496009B
:100190000E941412A2E7B0E00E940512A2E7B0E0AC
:1001A0000E94D212A3E8B0E08C930C94D700A2E78F
:1001B000B0E00E94D212EA2FFB2F0091830031970A
:1001C000E01BF0400FEFA4E8B0E00E94CA1280915B
:1001D000830081508093830000918400013611F0E8
:1001E0000C94F6000C9470020C945C020091840054
:1001F000023611F00C9400010C94B4020C945C02D1
:1002000000918400033611F00C940A010C942A0327
:100210000C945C0200918400043611F00C941401DB
:100220000C94A0030C945C0200918400053611F03C
:100230000C941E010C94FD030C945C02009184004C
:10024000063611F00C9428010C9428040C945C02DE
:1002500000918400073611F00C9432010C949E0436
:100260000C945C0200918400083611F00C943C015F
:100270000C94FB040C945C0200918400093611F08C
:100280000C9446010C9471050C945C02009184005E
:100290000A3611F00C9450010C94B5050C945C02D4
:1002A000009184000B3611F00C945A010C942B062B
:1002B0000C945C02009184000C3611F00C946401E3
:1002C0000C9488060C945C02009184000D3611F0A9
:1002D0000C946E010C94FE060C945C020091840058
:1002E0000E3611F00C9478010C9442070C945C02C9
:1002F000009184000F3611F00C9482010C94860753
:100300000C945C0200918400003711F00C948C0175
:100310000C94E3070C945C0200918400013711F007
:100320000C9496010C9459080C945C020091840082
:10033000023711F00C94A0010C94CF080C945C02CD
:1003400000918400033711F00C94AA010C942C093D
:100350000C945C0200918400043711F00C94B401F9
:100360000C9489090C945C0200918400053711F00B
:100370000C94BE010C94B4090C945C0200918400AE
:10038000063711F00C94C8010C94110A0C945C020D
:1003900000918400073711F00C94D2010C94870A65
:1003A0000C945C0200918400083711F00C94DC017D
:1003B0000C94E40A0C945C0200918400093711F05B
:1003C0000C94E6010C945A0B0C945C02009184008E
:1003D0000A3711F00C94F0010C94D00B0C945C02D1
:1003E00000918400003211F00C94FA010C94DC119D
:1003F0000C945C0200918400003311F00C94040210
:100400000C94460C0C945C0200918400013311F0B2
:100410000C940E020C94D50C0C945C020091840098
:10042000023311F00C9418020C94640D0C945C02CD
:1004300000918400033311F00C9422020C94F30D0C
:100440000C945C0200918400043311F00C942C0293
:100450000C94820E0C945C0200918400053311F020
:100460000C9436020C94110F0C945C0200918400E1
:10047000063311F00C9440020C94A00F0C945C0213
:1004800000918400073311F00C944A020C942F1051
:100490000C945C0200918400083311F00C94540217
:1004A0000C94BE100C945C0200918400093311F08E
:1004B0000C945C020C944D110E941412A2E7B0E05F
:1004C0000E940512E3E0F0E00E942912A1E6B0E0EC
:1004D00088278C93A2E7B0E088278C930C94820045
:1004E000ECEFF5E20E94F5110E94FC110E9414123B
:1004F000ECEFF5E20E940B1284E690E00E94B41249
:100500008F9AE4EFF1E08AE491E00197979A0E94D4
:10051000A41297980E94A412482F492BB1F70E9469
:100520001412EEEFF5E20E940B1288EC90E00E94AC
:10053000B4128F9AE4EFF1E088EA92E00197979A7B
:100540000E94A41297980E94A412482F492BB1F739
:100550000E941412E2E0F6E20E940B1288E592E09B
:100560000E94B4120C94D700E8E0F6E20E94F51164
:100570000E94FC110E941412E8E0F6E20E940B12A5
:1005800084E690E00E94B4128F9AE4EFF1E088EAEA
:1005900092E00197979A0E94A41297980E94A41241
:1005A000482F492BB1F70E941412EAE0F6E20E94AC
:1005B0000B1288EC90E00E94B4128F9AE4EFF1E005
:1005C0008AE491E00197979A0E94A41297980E945A
:1005D000A412482F492BB1F70E941412EEE0F6E264
:1005E0000E940B1288EC90E00E94B4128F9AE4EF04
:1005F000F1E08AE491E00197979A0E94A4129798FB
:100600000E94A412482F492BB1F70E941412E4E172
:10061000F6E20E940B1288EC90E00E94B4128F9ACE
:10062000E4EFF1E08AE491E00197979A0E94A41226
:1006300097980E94A412482F492BB1F70E941412D8
:10064000ECE1F6E20E940B1288E592E00E94B412FF
:100650000C94D700E6E2F6E20E94F5110E94FC112C
:100660000E941412E6E2F6E20E940B1284E690E089
:100670000E94B4128F9AE4EFF1E088EA92E00197C9
:10068000979A0E94A41297980E94A412482F492B6F
:10069000B1F70E941412E8E2F6E20E940B1288EC15
:1006A00090E00E94B4128F9AE4EFF1E08AE491E0C6
:1006B0000197979A0E94A41297980E94A412482F1B
:1006C000492BB1F70E941412ECE2F6E20E940B12E1
:1006D00088EC90E00E94B4128F9AE4EFF1E088EA8F
:1006E00092E00197979A0E94A41297980E94A412F0
:1006F000482F492BB1F70E941412E2E3F6E20E9460
:100700000B1288EC90E00E94B4128F9AE4EFF1E0B3
:100710008AE491E00197979A0E94A41297980E9408
:10072000A412482F492BB1F70E941412EAE3F6E213
:100730000E940B1288E592E00E94B4120C94D7003C
:10074000E4E4F6E20E94F5110E94FC110E941412EA
:10075000E4E4F6E20E940B1284E690E00E94B412F8
:100760008F9AE4EFF1E088EA92E00197979A0E946D
:10077000A41297980E94A412482F492BB1F70E9407
:100780001412E6E4F6E20E940B1288EC90E00E945C
:10079000B4128F9AE4EFF1E08AE491E00197979A1E
:1007A0000E94A41297980E94A412482F492BB1F7D7
:1007B0000E941412EAE4F6E20E940B1288EC90E028
:1007C0000E94B4128F9AE4EFF1E08AE491E001977D
:1007D000979A0E94A41297980E94A412482F492B1E
:1007E000B1F70E941412E0E5F6E20E940B1288E5D0
:1007F00092E00E94B4120C94D700E8E5F6E20E9461
:10080000F5110E94FC110E941412E8E5F6E20E9424
:100810000B1284E690E00E94B4128F9AE4EFF1E0AC
:100820008AE491E00197979A0E94A41297980E94F7
:10083000A412482F492BB1F70E941412EAE5F6E200
:100840000E940B1288E592E00E94B4120C94D7002B
:10085000EEE5F6E20E94F5110E94FC110E941412CE
:10086000EEE5F6E20E940B1284E690E00E94B412DC
:100870008F9AE4EFF1E08AE491E00197979A0E9461
:10088000A41297980E94A412482F492BB1F70E94F6
:100890001412E0E6F6E20E940B1288EC90E00E944F
:1008A000B4128F9AE4EFF1E08AE491E00197979A0D
:1008B0000E94A41297980E94A412482F492BB1F7C6
:1008C0000E941412E4E6F6E20E940B1288EC90E01B
:1008D0000E94B4128F9AE4EFF1E088EA92E0019767
:1008E000979A0E94A41297980E94A412482F492B0D
:1008F000B1F70E941412EAE6F6E20E940B1288ECAD
:1009000090E00E94B4128F9AE4EFF1E08AE491E063
:100910000197979A0E94A41297980E94A412482FB8
:10092000492BB1F70E941412E2E7F6E20E940B1283
:1009300088E592E00E94B4120C94D700ECE7F6E24E
:100940000E94F5110E94FC110E941412ECE7F6E2DD
:100950000E940B1284E690E00E94B4128F9AE4EF9A
:10096000F1E088EA92E00197979A0E94A412979882
:100970000E94A412482F492BB1F70E941412EEE7EF
:10098000F6E20E940B1288EC90E00E94B4128F9A5B
:10099000E4EFF1E088EA92E00197979A0E94A412AE
:1009A00097980E94A412482F492BB1F70E94141265
:1009B000E2E8F6E20E940B1288EC90E00E94B4128A
:1009C0008F9AE4EFF1E08AE491E00197979A0E9410
:1009D000A41297980E94A412482F492BB1F70E94A5
:1009E0001412E8E8F6E20E940B1288E592E00E94F9
:1009F000B4120C94D700E0E9F6E20E94F5110E94CF
:100A0000FC110E941412E0E9F6E20E940B1284E647
:100A100090E00E94B4128F9AE4EFF1E08AE491E052
:100A20000197979A0E94A41297980E94A412482FA7
:100A3000492BB1F70E941412E2E9F6E20E940B1270
:100A400088EC90E00E94B4128F9AE4EFF1E08AE41F
:100A500091E00197979A0E94A41297980E94A4127D
:100A6000482F492BB1F70E941412E6E9F6E20E94E2
:100A70000B1288EC90E00E94B4128F9AE4EFF1E040
:100A80008AE491E00197979A0E94A41297980E9495
:100A9000A412482F492BB1F70E941412ECE9F6E298
:100AA0000E940B1288EC90E00E94B4128F9AE4EF3F
:100AB000F1E08AE491E00197979A0E94A412979836
:100AC0000E94A412482F492BB1F70E941412E4EAA5
:100AD000F6E20E940B1288E592E00E94B4120C9498
:100AE000D700EEEAF6E20E94F5110E94FC110E9486
:100AF0001412EEEAF6E20E940B1284E690E00E94E5
:100B0000B4128F9AE4EFF1E08AE491E00197979AAA
:100B10000E94A41297980E94A412482F492BB1F763
:100B20000E941412E0EBF6E20E940B1288EC90E0B7
:100B30000E94B4128F9AE4EFF1E08AE491E0019709
:100B4000979A0E94A41297980E94A412482F492BAA
:100B5000B1F70E941412E4EBF6E20E940B1288E552
:100B600092E00E94B4120C94D700EAEBF6E20E94E5
:100B7000F5110E94FC110E941412EAEBF6E20E94A9
:100B80000B1284E690E00E94B4128F9AE4EFF1E039
:100B90008AE491E00197979A0E94A41297980E9484
:100BA000A412482F492BB1F70E941412ECEBF6E285
:100BB0000E940B1288EC90E00E94B4128F9AE4EF2E
:100BC000F1E088EA92E00197979A0E94A412979820
:100BD0000E94A412482F492BB1F70E941412E0EC96
:100BE000F6E20E940B1288EC90E00E94B4128F9AF9
:100BF000E4EFF1E088EA92E00197979A0E94A4124C
:100C000097980E94A412482F492BB1F70E94141202
:100C1000E6ECF6E20E940B1288EC90E00E94B4121F
:100C20008F9AE4EFF1E088EA92E00197979A0E94A8
:100C3000A41297980E94A412482F492BB1F70E9442
:100C40001412EEECF6E20E940B1288E592E00E948C
:100C5000B4120C94D700E8EDF6E20E94F5110E9460
:100C6000FC110E941412E8EDF6E20E940B1284E6D9
:100C700090E00E94B4128F9AE4EFF1E088EA92E0EB
:100C80000197979A0E94A41297980E94A412482F45
:100C9000492BB1F70E941412EAEDF6E20E940B1202
:100CA00088EC90E00E94B4128F9AE4EFF1E08AE4BD
:100CB00091E00197979A0E94A41297980E94A4121B
:100CC000482F492BB1F70E941412EEEDF6E20E9474
:100CD0000B1288EC90E00E94B4128F9AE4EFF1E0DE
:100CE00088EA92E00197979A0E94A41297980E942E
:100CF000A412482F492BB1F70E941412E4EEF6E239
:100D00000E940B1288E592E00E94B4120C94D70066
:100D1000ECEEF6E20E94F5110E94FC110E94141202
:100D2000ECEEF6E20E940B1284E690E00E94B41210
:100D30008F9AE4EFF1E08AE491E00197979A0E949C
:100D4000A41297980E94A412482F492BB1F70E9431
:100D50001412EEEEF6E20E940B1288EC90E00E9474
:100D6000B4128F9AE4EFF1E088EA92E00197979A43
:100D70000E94A41297980E94A412482F492BB1F701
:100D80000E941412E2EFF6E20E940B1288EC90E04F
:100D90000E94B4128F9AE4EFF1E08AE491E00197A7
:100DA000979A0E94A41297980E94A412482F492B48
:100DB000B1F70E941412E8EFF6E20E940B1288ECE1
:100DC00090E00E94B4128F9AE4EFF1E08AE491E09F
:100DD0000197979A0E94A41297980E94A412482FF4
:100DE000492BB1F70E941412E0E0F7E20E940B12C7
:100DF00088E592E00E94B4120C94D700EAE0F7E292
:100E00000E94F5110E94FC110E941412EAE0F7E220
:100E10000E940B1284E690E00E94B4128F9AE4EFD5
:100E2000F1E088EA92E00197979A0E94A4129798BD
:100E30000E94A412482F492BB1F70E941412ECE033
:100E4000F7E20E940B1288EC90E00E94B4128F9A95
:100E5000E4EFF1E088EA92E00197979A0E94A412E9
:100E600097980E94A412482F492BB1F70E941412A0
:100E7000E0E1F7E20E940B1288E592E00E94B412D2
:100E80000C94D700E6E1F7E20E94F5110E94FC11F4
:100E90000E941412E6E1F7E20E940B1284E690E051
:100EA0000E94B4128F9AE4EFF1E088EA92E0019791
:100EB000979A0E94A41297980E94A412482F492B37
:100EC000B1F70E941412E8E1F7E20E940B1288ECDD
:100ED00090E00E94B4128F9AE4EFF1E08AE491E08E
:100EE0000197979A0E94A41297980E94A412482FE3
:100EF000492BB1F70E941412ECE1F7E20E940B12A9
:100F000088E592E00E94B4120C94D700E2E2F7E286
:100F10000E94F5110E94FC110E941412E2E2F7E215
:100F20000E940B1284E690E00E94B4128F9AE4EFC4
:100F3000F1E088EA92E00197979A0E94A4129798AC
:100F40000E94A412482F492BB1F70E941412E4E228
:100F5000F7E20E940B1288EC90E00E94B4128F9A84
:100F6000E4EFF1E088EA92E00197979A0E94A412D8
:100F700097980E94A412482F492BB1F70E9414128F
:100F8000E8E2F7E20E940B1288EC90E00E94B412B3
:100F90008F9AE4EFF1E088EA92E00197979A0E9435
:100FA000A41297980E94A412482F492BB1F70E94CF
:100FB0001412EEE2F7E20E940B1288E592E00E9422
:100FC000B4120C94D700E6E3F7E20E94F5110E94F8
:100FD000FC110E941412E6E3F7E20E940B1284E671
:100FE00090E00E94B4128F9AE4EFF1E08AE491E07D
:100FF0000197979A0E94A41297980E94A412482FD2
:10100000492BB1F70E941412E8E3F7E20E940B1299
:1010100088EC90E00E94B4128F9AE4EFF1E088EA45
:1010200092E00197979A0E94A41297980E94A412A6
:10103000482F492BB1F70E941412ECE3F7E20E940B
:101040000B1288EC90E00E94B4128F9AE4EFF1E06A
:1010500088EA92E00197979A0E94A41297980E94BA
:10106000A412482F492BB1F70E941412E2E4F7E2D0
:101070000E940B1288EC90E00E94B4128F9AE4EF69
:10108000F1E08AE491E00197979A0E94A412979860
:101090000E94A412482F492BB1F70E941412EAE4CF
:1010A000F7E20E940B1288E592E00E94B4120C94C1
:1010B000D700E4E5F7E20E94F5110E94FC110E94BE
:1010C0001412E4E5F7E20E940B1284E690E00E941D
:1010D000B4128F9AE4EFF1E088EA92E00197979AD0
:1010E0000E94A41297980E94A412482F492BB1F78E
:1010F0000E941412E6E5F7E20E940B1288EC90E0E1
:101100000E94B4128F9AE4EFF1E088EA92E001972E
:10111000979A0E94A41297980E94A412482F492BD4
:10112000B1F70E941412EAE5F7E20E940B1288EC74
:1011300090E00E94B4128F9AE4EFF1E08AE491E02B
:101140000197979A0E94A41297980E94A412482F80
:10115000492BB1F70E941412E0E6F7E20E940B124D
:1011600088EC90E00E94B4128F9AE4EFF1E088EAF4
:1011700092E00197979A0E94A41297980E94A41255
:10118000482F492BB1F70E941412E8E6F7E20E94BB
:101190000B1288E592E00E94B4120C94D700E2E7AB
:1011A000F7E20E94F5110E94FC110E941412E2E77E
:1011B000F7E20E940B1284E690E00E94B4128F9A2C
:1011C000E4EFF1E08AE491E00197979A0E94A4127B
:1011D00097980E94A412482F492BB1F70E9414122D
:1011E000E4E7F7E20E940B1288EC90E00E94B41250
:1011F0008F9AE4EFF1E088EA92E00197979A0E94D3
:10120000A41297980E94A412482F492BB1F70E946C
:101210001412E8E7F7E20E940B1288EC90E00E94BB
:10122000B4128F9AE4EFF1E08AE491E00197979A83
:101230000E94A41297980E94A412482F492BB1F73C
:101240000E941412EEE7F7E20E940B1288E592E08A
:101250000E94B4120C94D700E6E8F7E20E94F51160
:101260000E94FC110E941412E6E8F7E20E940B12A1
:1012700084E690E00E94B4128F9AE4EFF1E08AE4F1
:1012800091E00197979A0E94A41297980E94A41245
:10129000482F492BB1F70E941412E8E8F7E20E94A8
:1012A0000B1288EC90E00E94B4128F9AE4EFF1E008
:1012B0008AE491E00197979A0E94A41297980E945D
:1012C000A412482F492BB1F70E941412ECE8F7E260
:1012D0000E940B1288EC90E00E94B4128F9AE4EF07
:1012E000F1E08AE491E00197979A0E94A4129798FE
:1012F0000E94A412482F492BB1F70E941412E2E970
:10130000F7E20E940B1288E592E00E94B4120C945E
:10131000D700EAE9F7E20E94F5110E94FC110E9451
:101320001412EAE9F7E20E940B1284E690E00E94B0
:10133000B4128F9AE4EFF1E088EA92E00197979A6D
:101340000E94A41297980E94A412482F492BB1F72B
:101350000E941412ECE9F7E20E940B1288E592E079
:101360000E94B4120C94D700E0EAF7E20E94F51153
:101370000E94FC110E941412E0EAF7E20E940B1294
:1013800084E690E00E94B4128F9AE4EFF1E08AE4E0
:1013900091E00197979A0E94A41297980E94A41234
:1013A000482F492BB1F70E941412E2EAF7E20E949B
:1013B0000B1288EC90E00E94B4128F9AE4EFF1E0F7
:1013C0008AE491E00197979A0E94A41297980E944C
:1013D000A412482F492BB1F70E941412E6EAF7E253
:1013E0000E940B1288EC90E00E94B4128F9AE4EFF6
:1013F000F1E088EA92E00197979A0E94A4129798E8
:101400000E94A412482F492BB1F70E941412ECEA53
:10141000F7E20E940B1288E592E00E94B4120C944D
:10142000D700E4EBF7E20E94F5110E94FC110E9444
:101430001412E4EBF7E20E940B1284E690E00E94A3
:10144000B4128F9AE4EFF1E08AE491E00197979A61
:101450000E94A41297980E94A412482F492BB1F71A
:101460000E941412E6EBF7E20E940B1288EC90E067
:101470000E94B4128F9AE4EFF1E08AE491E00197C0
:10148000979A0E94A41297980E94A412482F492B61
:10149000B1F70E941412EAEBF7E20E940B1288ECFB
:1014A00090E00E94B4128F9AE4EFF1E08AE491E0B8
:1014B0000197979A0E94A41297980E94A412482F0D
:1014C000492BB1F70E941412E0ECF7E20E940B12D4
:1014D00088EC90E00E94B4128F9AE4EFF1E088EA81
:1014E00092E00197979A0E94A41297980E94A412E2
:1014F000482F492BB1F70E941412E8ECF7E20E9442
:101500000B1288E592E00E94B4120C94D700E2ED31
:10151000F7E20E94F5110E94FC110E941412E2ED04
:10152000F7E20E940B1284E690E00E94B4128F9AB8
:10153000E4EFF1E08AE491E00197979A0E94A41207
:1015400097980E94A412482F492BB1F70E941412B9
:10155000E4EDF7E20E940B1288EC90E00E94B412D6
:101560008F9AE4EFF1E088EA92E00197979A0E945F
:10157000A41297980E94A412482F492BB1F70E94F9
:101580001412E8EDF7E20E940B1288EC90E00E9442
:10159000B4128F9AE4EFF1E088EA92E00197979A0B
:1015A0000E94A41297980E94A412482F492BB1F7C9
:1015B0000E941412EEEDF7E20E940B1288E592E011
:1015C0000E94B4120C94D700E6EEF7E20E94F511E7
:1015D0000E94FC110E941412E6EEF7E20E940B1228
:1015E00084E690E00E94B4128F9AE4EFF1E088EA7A
:1015F00092E00197979A0E94A41297980E94A412D1
:10160000482F492BB1F70E941412E8EEF7E20E942E
:101610000B1288EC90E00E94B4128F9AE4EFF1E094
:101620008AE491E00197979A0E94A41297980E94E9
:10163000A412482F492BB1F70E941412ECEEF7E2E6
:101640000E940B1288EC90E00E94B4128F9AE4EF93
:10165000F1E08AE491E00197979A0E94A41297988A
:101660000E94A412482F492BB1F70E941412E2EFF6
:10167000F7E20E940B1288EC90E00E94B4128F9A5D
:10168000E4EFF1E088EA92E00197979A0E94A412B1
:1016900097980E94A412482F492BB1F70E94141268
:1016A000EAEFF7E20E940B1288E592E00E94B41282
:1016B0000C94D700E4E0F8E20E94F5110E94FC11BE
:1016C0000E941412E4E0F8E20E940B1284E690E01B
:1016D0000E94B4128F9AE4EFF1E088EA92E0019759
:1016E000979A0E94A41297980E94A412482F492BFF
:1016F000B1F70E941412E6E0F8E20E940B1288ECA7
:1017000090E00E94B4128F9AE4EFF1E08AE491E055
:101710000197979A0E94A41297980E94A412482FAA
:10172000492BB1F70E941412EAE0F8E20E940B1272
:1017300088EC90E00E94B4128F9AE4EFF1E088EA1E
:1017400092E00197979A0E94A41297980E94A4127F
:10175000482F492BB1F70E941412E0E1F8E20E94F1
:101760000B1288EC90E00E94B4128F9AE4EFF1E043
:1017700088EA92E00197979A0E94A41297980E9493
:10178000A412482F492BB1F70E941412E8E1F8E2A5
:101790000E940B1288E592E00E94B4120C94D700CC
:1017A000E2E2F8E20E94F5110E94FC110E9414127C
:1017B000E2E2F8E20E940B1284E690E00E94B4128A
:1017C0008F9AE4EFF1E088EA92E00197979A0E94FD
:1017D000A41297980E94A412482F492BB1F70E9497
:1017E0001412E4E2F8E20E940B1288EC90E00E94EE
:1017F000B4128F9AE4EFF1E088EA92E00197979AA9
:101800000E94A41297980E94A412482F492BB1F766
:101810000E941412E8E2F8E20E940B1288EC90E0B9
:101820000E94B4128F9AE4EFF1E08AE491E001970C
:10183000979A0E94A41297980E94A412482F492BAD
:10184000B1F70E941412EEE2F8E20E940B1288EC4B
:1018500090E00E94B4128F9AE4EFF1E08AE491E004
:101860000197979A0E94A41297980E94A412482F59
:10187000492BB1F70E941412E6E3F8E20E940B1222
:1018800088E592E00E94B4120C94D700E0E4F8E2FC
:101890000E94F5110E94FC110E941412E0E4F8E28B
:1018A0000E940B1284E690E00E94B4128F9AE4EF3B
:1018B000F1E088EA92E00197979A0E94A412979823
:1018C0000E94A412482F492BB1F70E941412E2E49F
:1018D000F8E20E940B1288EC90E00E94B4128F9AFA
:1018E000E4EFF1E088EA92E00197979A0E94A4124F
:1018F00097980E94A412482F492BB1F70E94141206
:10190000E6E4F8E20E940B1288EC90E00E94B41228
:101910008F9AE4EFF1E088EA92E00197979A0E94AB
:10192000A41297980E94A412482F492BB1F70E9445
:101930001412ECE4F8E20E940B1288EC90E00E9492
:10194000B4128F9AE4EFF1E088EA92E00197979A57
:101950000E94A41297980E94A412482F492BB1F715
:101960000E941412E4E5F8E20E940B1288EC90E069
:101970000E94B4128F9AE4EFF1E088EA92E00197B6
:10198000979A0E94A41297980E94A412482F492B5C
:10199000B1F70E941412EEE5F8E20E940B1288E5FE
:1019A00092E00E94B4120C94D700EAE6F8E20E949A
:1019B000F5110E94FC110E941412EAE6F8E20E945E
:1019C0000B1284E690E00E94B4128F9AE4EFF1E0EB
:1019D0008AE491E00197979A0E94A41297980E9436
:1019E000A412482F492BB1F70E941412ECE6F8E23A
:1019F0000E940B1288EC90E00E94B4128F9AE4EFE0
:101A0000F1E088EA92E00197979A0E94A4129798D1
:101A10000E94A412482F492BB1F70E941412E0E74C
:101A2000F8E20E940B1288EC90E00E94B4128F9AA8
:101A3000E4EFF1E088EA92E00197979A0E94A412FD
:101A400097980E94A412482F492BB1F70E941412B4
:101A5000E6E7F8E20E940B1288EC90E00E94B412D4
:101A60008F9AE4EFF1E088EA92E00197979A0E945A
:101A7000A41297980E94A412482F492BB1F70E94F4
:101A80001412EEE7F8E20E940B1288EC90E00E943C
:101A9000B4128F9AE4EFF1E088EA92E00197979A06
:101AA0000E94A41297980E94A412482F492BB1F7C4
:101AB0000E941412E8E8F8E20E940B1288E592E016
:101AC0000E94B4120C94D700E4E9F8E20E94F511E8
:101AD0000E94FC110E941412E4E9F8E20E940B1229
:101AE00084E690E00E94B4128F9AE4EFF1E08AE479
:101AF00091E00197979A0E94A41297980E94A412CD
:101B0000482F492BB1F70E941412E6E9F8E20E942F
:101B10000B1288EC90E00E94B4128F9AE4EFF1E08F
:101B20008AE491E00197979A0E94A41297980E94E4
:101B3000A412482F492BB1F70E941412EAE9F8E2E7
:101B40000E940B1288EC90E00E94B4128F9AE4EF8E
:101B5000F1E088EA92E00197979A0E94A412979880
:101B60000E94A412482F492BB1F70E941412E0EAF8
:101B7000F8E20E940B1288EC90E00E94B4128F9A57
:101B8000E4EFF1E088EA92E00197979A0E94A412AC
:101B900097980E94A412482F492BB1F70E94141263
:101BA000E8EAF8E20E940B1288EC90E00E94B4127E
:101BB0008F9AE4EFF1E088EA92E00197979A0E9409
:101BC000A41297980E94A412482F492BB1F70E94A3
:101BD0001412E2EBF8E20E940B1288E592E00E94F8
:101BE000B4120C94D700EEEBF8E20E94F5110E94BB
:101BF000FC110E941412EEEBF8E20E940B1284E634
:101C000090E00E94B4128F9AE4EFF1E08AE491E050
:101C10000197979A0E94A41297980E94A412482FA5
:101C2000492BB1F70E941412E0ECF8E20E940B126B
:101C300088EC90E00E94B4128F9AE4EFF1E08AE41D
:101C400091E00197979A0E94A41297980E94A4127B
:101C5000482F492BB1F70E941412E4ECF8E20E94DD
:101C60000B1288EC90E00E94B4128F9AE4EFF1E03E
:101C70008AE491E00197979A0E94A41297980E9493
:101C8000A412482F492BB1F70E941412EAECF8E293
:101C90000E940B1288EC90E00E94B4128F9AE4EF3D
:101CA000F1E088EA92E00197979A0E94A41297982F
:101CB0000E94A412482F492BB1F70E941412E2EDA2
:101CC000F8E20E940B1288EC90E00E94B4128F9A06
:101CD000E4EFF1E088EA92E00197979A0E94A4125B
:101CE00097980E94A412482F492BB1F70E94141212
:101CF000ECEDF8E20E940B1288E592E00E94B4122B
:101D00000C94D700E8EEF8E20E94F5110E94FC1155
:101D10000E941412E8EEF8E20E940B1284E690E0B2
:101D20000E94B4128F9AE4EFF1E08AE491E0019707
:101D3000979A0E94A41297980E94A412482F492BA8
:101D4000B1F70E941412EAEEF8E20E940B1288EC3E
:101D500090E00E94B4128F9AE4EFF1E08AE491E0FF
:101D60000197979A0E94A41297980E94A412482F54
:101D7000492BB1F70E941412EEEEF8E20E940B120A
:101D800088EC90E00E94B4128F9AE4EFF1E08AE4CC
:101D900091E00197979A0E94A41297980E94A4122A
:101DA000482F492BB1F70E941412E4EFF8E20E9489
:101DB0000B1288EC90E00E94B4128F9AE4EFF1E0ED
:101DC0008AE491E00197979A0E94A41297980E9442
:101DD000A412482F492BB1F70E941412ECEFF8E23D
:101DE0000E940B1288EC90E00E94B4128F9AE4EFEC
:101DF000F1E088EA92E00197979A0E94A4129798DE
:101E00000E94A412482F492BB1F70E941412E6E059
:101E1000F9E20E940B1288E592E00E94B4120C9441
:101E2000D700E2E1F9E20E94F5110E94FC110E9444
:101E30001412E2E1F9E20E940B1284E690E00E94A3
:101E4000B4128F9AE4EFF1E08AE491E00197979A57
:101E50000E94A41297980E94A412482F492BB1F710
:101E60000E941412E4E1F9E20E940B1288EC90E067
:101E70000E94B4128F9AE4EFF1E08AE491E00197B6
:101E8000979A0E94A41297980E94A412482F492B57
:101E9000B1F70E941412E8E1F9E20E940B1288ECFB
:101EA00090E00E94B4128F9AE4EFF1E08AE491E0AE
:101EB0000197979A0E94A41297980E94A412482F03
:101EC000492BB1F70E941412EEE1F9E20E940B12C5
:101ED00088EC90E00E94B4128F9AE4EFF1E08AE47B
:101EE00091E00197979A0E94A41297980E94A412D9
:101EF000482F492BB1F70E941412E6E2F9E20E9442
:101F00000B1288EC90E00E94B4128F9AE4EFF1E09B
:101F10008AE491E00197979A0E94A41297980E94F0
:101F2000A412482F492BB1F70E941412E0E3F9E202
:101F30000E940B1288E592E00E94B4120C94D70024
:101F4000ECE3F9E20E94F5110E94FC110E941412C8
:101F5000ECE3F9E20E940B1284E690E00E94B412D6
:101F60008F9AE4EFF1E088EA92E00197979A0E9455
:101F7000A41297980E94A412482F492BB1F70E94EF
:101F80001412EEE3F9E20E940B1288EC90E00E943A
:101F9000B4128F9AE4EFF1E08AE491E00197979A06
:101FA0000E94A41297980E94A412482F492BB1F7BF
:101FB0000E941412E2E4F9E20E940B1288EC90E015
:101FC0000E94B4128F9AE4EFF1E08AE491E0019765
:101FD000979A0E94A41297980E94A412482F492B06
:101FE000B1F70E941412E8E4F9E20E940B1288ECA7
:101FF00090E00E94B4128F9AE4EFF1E08AE491E05D
:102000000197979A0E94A41297980E94A412482FB1
:10201000492BB1F70E941412E0E5F9E20E940B127D
:1020200088EC90E00E94B4128F9AE4EFF1E08AE429
:1020300091E00197979A0E94A41297980E94A41287
:10204000482F492BB1F70E941412EAE5F9E20E94E9
:102050000B1288E592E00E94B4120C94D700E6E6D9
:10206000F9E20E94F5110E94FC110E941412E6E6AA
:10207000F9E20E940B1284E690E00E94B4128F9A5B
:10208000E4EFF1E088EA92E00197979A0E94A412A7
:1020900097980E94A412482F492BB1F70E9414125E
:1020A000E8E6F9E20E940B1288EC90E00E94B4127C
:1020B0008F9AE4EFF1E088EA92E00197979A0E9404
:1020C000A41297980E94A412482F492BB1F70E949E
:1020D0001412ECE6F9E20E940B1288EC90E00E94E8
:1020E000B4128F9AE4EFF1E08AE491E00197979AB5
:1020F0000E94A41297980E94A412482F492BB1F76E
:102100000E941412E2E7F9E20E940B1288EC90E0C0
:102110000E94B4128F9AE4EFF1E08AE491E0019713
:10212000979A0E94A41297980E94A412482F492BB4
:10213000B1F70E941412EAE7F9E20E940B1288EC50
:1021400090E00E94B4128F9AE4EFF1E08AE491E00B
:102150000197979A0E94A41297980E94A412482F60
:10216000492BB1F70E941412E4E8F9E20E940B1225
:1021700088E592E00E94B4120C94D700E0E9F9E2FD
:102180000E94F5110E94FC110E941412E0E9F9E28C
:102190000E940B1284E690E00E94B4128F9AE4EF42
:1021A000F1E088EA92E00197979A0E94A41297982A
:1021B0000E94A412482F492BB1F70E941412E2E9A1
:1021C000F9E20E940B1288EC90E00E94B4128F9A00
:1021D000E4EFF1E088EA92E00197979A0E94A41256
:1021E00097980E94A412482F492BB1F70E9414120D
:1021F000E6E9F9E20E940B1288EC90E00E94B4122A
:102200008F9AE4EFF1E088EA92E00197979A0E94B2
:10221000A41297980E94A412482F492BB1F70E944C
:102220001412ECE9F9E20E940B1288EC90E00E9493
:10223000B4128F9AE4EFF1E08AE491E00197979A63
:102240000E94A41297980E94A412482F492BB1F71C
:102250000E941412E4EAF9E20E940B1288EC90E06A
:102260000E94B4128F9AE4EFF1E08AE491E00197C2
:10227000979A0E94A41297980E94A412482F492B63
:10228000B1F70E941412EEEAF9E20E940B1288E5FF
:1022900092E00E94B4120C94D700EAEBF9E20E949B
:1022A000F5110E94FC110E941412EAEBF9E20E945F
:1022B0000B1284E690E00E94B4128F9AE4EFF1E0F2
:1022C00088EA92E00197979A0E94A41297980E9438
:1022D000A412482F492BB1F70E941412ECEBF9E23B
:1022E0000E940B1288EC90E00E94B4128F9AE4EFE7
:1022F000F1E088EA92E00197979A0E94A4129798D9
:102300000E94A412482F492BB1F70E941412E0EC4E
:10231000F9E20E940B1288EC90E00E94B4128F9AAE
:10232000E4EFF1E088EA92E00197979A0E94A41204
:1023300097980E94A412482F492BB1F70E941412BB
:10234000E6ECF9E20E940B1288EC90E00E94B412D5
:102350008F9AE4EFF1E088EA92E00197979A0E9461
:10236000A41297980E94A412482F492BB1F70E94FB
:102370001412EEECF9E20E940B1288EC90E00E943D
:10238000B4128F9AE4EFF1E08AE491E00197979A12
:102390000E94A41297980E94A412482F492BB1F7CB
:1023A0000E941412E8EDF9E20E940B1288E592E017
:1023B0000E94B4120C94D700E4EEF9E20E94F511E9
:1023C0000E94FC11E1E0F0E00E9429120C94D70079
:1023D000F894FFCF8F938D918823E9F711978F9110
:1023E00008955F9BFECF8CB108950E94C312802D8B
:1023F00011F005D0FACF08958DE001D08AE05D9B01
:10240000FECF8CB90895A8E0B8E08D91882311F033
:1024100071D0FBCF08950E94C312802D11F06AD0B5
:10242000FACF089580EC6CC081E06AD018D080E8C3
:1024300067C08FE7213039F08FEB223021F08FE831
:10244000233009F08FEC810F0C94801280E858D073
:10245000089588EE93E088D03197D9F7089583E006
:10246000992782C08AEF90E00E94B412A79AA69A98
:10247000A59AA49AA39AA29AAA9885E090E00E94AD
:10248000B412AB98AF98AE98AD9AAC9AAB9AEF9362
:10249000FF93ECE8F1E00E94A112FF91EF91AB985D
:1024A00060D0AB9AEF93FF93ECE8F1E00E94A112A9
:1024B000FF91EF91AB9855D0AB9AEF93FF93ECE877
:1024C000F1E00E94A112FF91EF91AB984AD0AC9835
:1024D000AB9AEF93FF93ECE8F1E00E94A112FF9119
:1024E000EF91AB983ED088E20BD08EE009D086E029
:1024F00007D00895AA9A829505D004D032D00895C5
:10250000AA98F9CF859510F4AC9A01C0AC9885953E
:1025100010F4AD9A01C0AD98859510F4AE9A01C043
:10252000AE98859510F4AF9A01C0AF98AB9AEF932F
:10253000FF93ECE8F1E00E94A112FF91EF91AB98BC
:1025400008953197F1F70895AE2FBF2F11974A2FB5
:102550004B2BE1F70895689462F80895E89462F8C7
:10256000089581E090E000C0EF93FF93EE27E82B01
:10257000E92B31F0E0EAFFE03197F1F70197D1F76D
:10258000FF91EF910895C89531960020089588270E
:102590008D93089581918D930A9519F08823D1F731
:1025A0000895F5CF8FEF83959D919923E1F70895D5
:1025B000546C756D61637A656E6965006369616706
:1025C00075207A6E616B6F77206E6100616C666159
:1025D000626574206D6F727361005770726F7761FE
:1025E000647A2074656B737400005770726F776142
:1025F000647A2074656B73743A20000041004120B6
:102600002E0041202E205F00420042205F00422029
:102610005F202E0042205F202E202E0042205F20CF
:102620002E202E202E00430043205F0043205F20F9
:102630002E0043205F202E205F0043205F202E20AD
:102640005F202E00440044205F0044205F202E00C5
:1026500044205F202E202E00450045202E004600FD
:1026600046202E0046202E202E0046202E202E20F2
:102670005F0046202E202E205F202E00470047209E
:102680005F0047205F205F0047205F205F202E0013
:10269000480048202E0048202E202E0048202E20C2
:1026A0002E202E0048202E202E202E202E004900E5
:1026B00049202E0049202E202E004A004A202E00BC
:1026C0004A202E205F004A202E205F205F004A20F3
:1026D0002E205F205F205F004B004B205F004B20CF
:1026E0005F202E004B205F202E205F004C004C20EE
:1026F0002E004C202E205F004C202E205F202E002C
:102700004C202E205F202E202E004D004D205F00FB
:102710004D205F205F004E004E205F004E205F2066
:102720002E004F004F205F004F205F205F004F20A2
:102730005F205F205F00500050202E0050202E2090
:102740005F0050202E205F205F0050202E205F2051
:102750005F202E00510051205F0051205F205F005C
:1027600051205F205F202E0051205F205F202E200F
:102770005F00520052202E0052202E205F00522077
:102780002E205F202E00530053202E0053202E2099
:102790002E0053202E202E202E00540054205F00A7
:1027A000550055202E0055202E202E0055202E207D
:1027B0002E205F00560056202E0056202E202E0080
:1027C00056202E202E202E0056202E202E202E2069
:1027D0005F00570057202E0057202E205F00572003
:1027E0002E205F205F00580058205F0058205F2097
:1027F0002E0058205F202E202E0058205F202E20F3
:102800002E205F00590059205F0059205F202E00C4
:1028100059205F202E205F0059205F202E205F204E
:102820005F005A005A205F005A205F202E005A2075
:102830005F202E205F005A205F202E205F205F0047
:10284000300030205F0030205F205F0030205F20AC
:102850005F205F0030205F205F205F205F0030201E
:102860005F205F205F205F205F00310031202E005D
:1028700031202E205F0031202E205F205F0031208C
:102880002E205F205F205F0031202E205F205F2000
:102890005F205F00320032202E0032202E202E00DA
:1028A00032202E202E205F0032202E202E205F206E
:1028B0005F0032202E202E205F205F205F0033003B
:1028C00033202E0033202E202E0033202E202E20C9
:1028D0002E0033202E202E202E205F0033202E208D
:1028E0002E202E205F205F00340034202E00342064
:1028F0002E202E0034202E202E202E0034202E209C
:102900002E202E202E0034202E202E202E202E2071
:102910005F00350035202E0035202E202E0035207A
:102920002E202E202E0035202E202E202E202E0070
:1029300035202E202E202E202E202E003600362050
:102940005F0036205F202E0036205F202E202E00D4
:1029500036205F202E202E202E0036205F202E20B5
:102960002E202E202E00370037205F0037205F20DA
:102970005F0037205F205F202E0037205F205F2020
:102980002E202E0037205F205F202E202E202E00AC
:10299000380038205F0038205F205F0038205F203B
:1029A0005F205F0038205F205F205F202E003820EE
:1029B0005F205F205F202E202E00390039205F002D
:1029C00039205F205F0039205F205F205F003920C1
:1029D0005F205F205F205F0039205F205F205F2045
:0629E0005F202E00200024
:00000001FF
